{
  "contractName": "Token",
  "abi": [
    {
      "inputs": [
        {
          "internalType": "uint256",
          "name": "_initialSupply",
          "type": "uint256"
        }
      ],
      "payable": false,
      "stateMutability": "nonpayable",
      "type": "constructor"
    },
    {
      "constant": true,
      "inputs": [],
      "name": "tokenName",
      "outputs": [
        {
          "internalType": "string",
          "name": "",
          "type": "string"
        }
      ],
      "payable": false,
      "stateMutability": "view",
      "type": "function"
    },
    {
      "constant": true,
      "inputs": [],
      "name": "tokenStandard",
      "outputs": [
        {
          "internalType": "string",
          "name": "",
          "type": "string"
        }
      ],
      "payable": false,
      "stateMutability": "view",
      "type": "function"
    },
    {
      "constant": true,
      "inputs": [],
      "name": "tokenSymbol",
      "outputs": [
        {
          "internalType": "string",
          "name": "",
          "type": "string"
        }
      ],
      "payable": false,
      "stateMutability": "view",
      "type": "function"
    },
    {
      "constant": true,
      "inputs": [],
      "name": "totalSupply",
      "outputs": [
        {
          "internalType": "uint256",
          "name": "",
          "type": "uint256"
        }
      ],
      "payable": false,
      "stateMutability": "view",
      "type": "function"
    }
  ],
  "bytecode": "0x60806040526040518060400160405280600a81526020017f47686f6620546f6b656e000000000000000000000000000000000000000000008152506000908051906020019061004f929190610135565b506040518060400160405280600381526020017f47544300000000000000000000000000000000000000000000000000000000008152506001908051906020019061009b929190610135565b506040518060400160405280600f81526020017f47686f6620546f6b656e2076312e300000000000000000000000000000000000815250600290805190602001906100e7929190610135565b503480156100f457600080fd5b506040516105f63803806105f68339818101604052602081101561011757600080fd5b810190808051906020019092919050505080600381905550506101da565b828054600181600116156101000203166002900490600052602060002090601f016020900481019282601f1061017657805160ff19168380011785556101a4565b828001600101855582156101a4579182015b828111156101a3578251825591602001919060010190610188565b5b5090506101b191906101b5565b5090565b6101d791905b808211156101d35760008160009055506001016101bb565b5090565b90565b61040d806101e96000396000f3fe608060405234801561001057600080fd5b506004361061004c5760003560e01c806318160ddd146100515780636c02a9311461006f5780637b61c320146100f25780637e6e611414610175575b600080fd5b6100596101f8565b6040518082815260200191505060405180910390f35b6100776101fe565b6040518080602001828103825283818151815260200191508051906020019080838360005b838110156100b757808201518184015260208101905061009c565b50505050905090810190601f1680156100e45780820380516001836020036101000a031916815260200191505b509250505060405180910390f35b6100fa61029c565b6040518080602001828103825283818151815260200191508051906020019080838360005b8381101561013a57808201518184015260208101905061011f565b50505050905090810190601f1680156101675780820380516001836020036101000a031916815260200191505b509250505060405180910390f35b61017d61033a565b6040518080602001828103825283818151815260200191508051906020019080838360005b838110156101bd5780820151818401526020810190506101a2565b50505050905090810190601f1680156101ea5780820380516001836020036101000a031916815260200191505b509250505060405180910390f35b60035481565b60008054600181600116156101000203166002900480601f0160208091040260200160405190810160405280929190818152602001828054600181600116156101000203166002900480156102945780601f1061026957610100808354040283529160200191610294565b820191906000526020600020905b81548152906001019060200180831161027757829003601f168201915b505050505081565b60018054600181600116156101000203166002900480601f0160208091040260200160405190810160405280929190818152602001828054600181600116156101000203166002900480156103325780601f1061030757610100808354040283529160200191610332565b820191906000526020600020905b81548152906001019060200180831161031557829003601f168201915b505050505081565b60028054600181600116156101000203166002900480601f0160208091040260200160405190810160405280929190818152602001828054600181600116156101000203166002900480156103d05780601f106103a5576101008083540402835291602001916103d0565b820191906000526020600020905b8154815290600101906020018083116103b357829003601f168201915b50505050508156fea265627a7a7231582097e04663f254efe89a440a98dcb95d349a80aab98a4b59315ad6129458783ee464736f6c63430005100032",
  "source": "pragma solidity ^0.5.0;\r\n\r\n/**\r\n * The contractName contract does this and that...\r\n */\r\n\r\ncontract Token {\r\n\r\n  /****** Token's caracters ******/\t\r\n  // Token's name\r\n  string public tokenName =\"Ghof Token\";\r\n  // Token's Symbol\r\n  string public tokenSymbol =\"GTC\";\r\n  //Token's Standard\r\n  string public tokenStandard =\"Ghof Token v1.0\";\r\n\r\n  // State-variable that design the total of tokens\r\n  uint256 public totalSupply;\r\n\r\n  //Collection of addreses's balances\r\n  mapping (address => uint256) balanceOf;\r\n    \r\n\r\n  //Constructeur\t\r\n  constructor(uint256 _initialSupply) public {\r\n    totalSupply=_initialSupply;\r\n  }\r\n  // Set the total number of tokens\r\n  //Read the total number of tokens\r\n}\r\n\r\n\r\n",
  "sourcePath": "C:\\Users\\BlockChainista\\Desktop\\DevOutils\\Ethereum_Projects\\TokenSale\\contracts\\Token.sol",
  "compiler": {
    "name": "solc",
    "version": "0.5.16+commit.9c3226ce.Emscripten.clang"
  },
  "schemaVersion": "3.0.23",
  "updatedAt": "2020-03-31T21:23:04.965Z",
  "networkType": "ethereum",
  "devdoc": {
    "methods": {}
  },
  "userdoc": {
    "methods": {},
    "notice": "The contractName contract does this and that..."
  }
}